:100000000C944C020C9469020C9469020C946902E1
:100010000C9469020C9469020C9469020C946902B4
:100020000C9469020C9469020C9469020C946902A4
:100030000C9469020C9469020C9469020C94690294
:100040000C9469020C9469020C9469020C94690284
:100050000C9469020C9469020C9469020C94690274
:100060000C9469020C9469020C9469020C94690264
:100070000C9469020C9469020C9469020C94690254
:100080000C9469020C9469020C9469020C94690244
:100090000C9469020C94690200000000000000004A
:1000A0000000000000000000000000000000000050
:1000B0000000000000000000000000000000000040
:1000C0000000000000000000000000000000000030
:1000D00000000000000000000000E0F8FC1C0C0C18
:1000E0000C0C0C0C0CECECEC0C0E0E0E0E0E8EEE42
:1000F0006E2C0C0C2C2CACAC0C0C0C0C0C0C1C7CBE
:10010000FCF0000000000000000000000000000003
:1001100000000000000000000000000000000000DF
:1001200000000000000000000000000000000000CF
:10013000000000000000000000000000C0E03000EF
:10014000C0F0389CE07098C86020A0B0B090909843
:10015000989898989898989898989B9B9998989818
:10016000989898989C8F8FC3C060301C0E07010030
:10017000000000000000AAAA00000000000000002B
:10018000FFFFFC0000000000000000000000000075
:10019000000000000000000000000000000000005F
:1001A000000000000000000000000000000000004F
:1001B0000000000000000000E0BE7EDEBFB17C6FEA
:1001C000F3FCFFFBFEFFFFFFEFED2D2D2D2D2D2D61
:1001D0002D2D2D2D2D2C24242424242424242424AA
:1001E0006464646464C4CC0C0C1C3870E0C000000F
:1001F000000000000000AAAA0000000000000000AB
:10020000FFFF3F00000000000000000000000000B1
:1002100000000000000000000000000000000000DE
:1002200000000000000000000000000000000000CE
:10023000000000000000021E7CF3E78E1D3B737679
:1002400066E6CCCDCDCD0D0500000000000000001D
:10025000000000000000000000001FFFFEE08080A2
:100260008080808080BFBFBF808080808081878EBB
:100270009CB0A08080808A9AB8B0B0B090C0C0F81E
:10028000FF7F0000000000000000000000000000F0
:10029000000000000000000000000000000000005E
:1002A0000000000000000000000000000000C0C0CE
:1002B000C0C0C0C0E0E0F87C1F0703F1FBFBF6C63E
:1002C0000600000000000000000000000000000028
:1002D000000000000000000000000000010101011A
:1002E00001010101010101010101010101010101FE
:1002F00001010101010101010101010101010101EE
:1003000001000000000000000000000000000000EC
:1003100000000000000000000000000000000000DD
:1003200000000000000000000000000000000000CD
:1003300000000000003FFFC0000000FFF0000103CC
:100340000FFEF800000000000000000000000000A8
:10035000000000000000000000000000000000009D
:10036000000000000000000000000000000000008D
:10037000000000000000000000000000000000007D
:10038000000000000000000000000000000000006D
:10039000000000000000000000000000000000005D
:1003A000000000000000000000000000000000004D
:1003B000000000000000000103060401FFFFC01858
:1003C00018181818000000000000000000000000CD
:1003D000000000000000000000000000000000001D
:1003E000000000000000000000000000000000000D
:1003F00000000000000000000000000000000000FD
:1004000000000000000000000000000000000000EC
:1004100000000000000000000000000000000000DC
:1004200000000000000000000000000000000000CC
:100430000000000000000000000060381F0F0000F6
:1004400000000000000000000000000000000000AC
:10045000000000000000000000000000000000009C
:10046000000000000000000000000000000000008C
:10047000000000000000000000000000000000007C
:10048000000000000000000000000000000000006C
:10049000000000000000000011241FBECFEFD4E0D8
:1004A000DEBFCDBF11E0A0E0B1E0EEE8F6E002C0B3
:1004B00005900D92A030B107D9F711E0A0E0B1E0AE
:1004C00001C01D92A030B107E1F70E943A030C94DD
:1004D00045030C940000823031F0833031F08130DC
:1004E00039F45B9A06C05B9801C05B9A5C9A0895E8
:1004F0005B985C98089585B95A9A8AE08A95F1F7D5
:100500005A9885E08A95F1F715B808951F93CF930F
:10051000DF930F92CDB7DEB7182F862F69830E9425
:100520006B0259985898812F69810E947B020F9025
:10053000DF91CF911F9108951F93CF93DF930F9277
:10054000CDB7DEB7182F862F69830E946B025998AA
:10055000589A812F69810E947B020F90DF91CF9181
:100560001F910895509A519A529A539A549A559AB3
:100570008FEF84B9089583E00E946B025D988CE24E
:1005800091E020E931E0F9013197F1F70197D9F7CE
:100590005D9A8FE363E00E94860280EC63E00E9434
:1005A000860280E463E00E94860288EB63E00E949A
:1005B000860208950F931F9310E0812F886B63E0EC
:1005C0000E94860280E463E00E94860200E480E0EC
:1005D00063E00E949C020150D1F788EB63E00E9427
:1005E000860280E463E00E9486021F5F183029F7CC
:1005F0001F910F910895AF92BF92CF92DF92FF9219
:100600000F931F93CF93DF930F92CDB7DEB76C019B
:1006100000E010E0FF248F2D886B63E00E948602CB
:1006200080E463E00E948602580190E0903410F468
:1006300061E001C062E0F601EA0DFB1D0894A11C17
:10064000B11C849199830E949C0299819F5F90388C
:1006500069F7F39400581F4F88E0F816E1F60F9001
:10066000DF91CF911F910F91FF90DF90CF90BF90BE
:10067000AF9008950E94B2020E94BB020E94DA026B
:0E06800088E990E00E94FB02FFCFF894FFCFC4
:00000001FF
