:100000000C944C000C9469000C9469000C946900E9
:100010000C9469000C9469000C9469000C946900BC
:100020000C9469000C9469000C9469000C946900AC
:100030000C9469000C9469000C9469000C9469009C
:100040000C9469000C9469000C9469000C9469008C
:100050000C9469000C9469000C9469000C9469007C
:100060000C9469000C9469000C9469000C9469006C
:100070000C9469000C9469000C9469000C9469005C
:100080000C9469000C9469000C9469000C9469004C
:100090000C9469000C94690011241FBECFEFD4E0CA
:1000A000DEBFCDBF11E0A0E0B1E0E0E1F2E002C0D0
:1000B00005900D92A030B107D9F711E0A0E0B1E0B2
:1000C00001C01D92A030B107E1F70E94FB000C9423
:1000D00006010C940000823031F0833031F0813021
:1000E00039F45B9A06C05B9801C05B9A5C9A0895EC
:1000F0005B985C98089585B95A9A8AE08A95F1F7D9
:100100005A9885E08A95F1F715B808951F93CF9313
:10011000DF930F92CDB7DEB7182F862F69830E9429
:100120006B0059985898812F69810E947B000F902D
:10013000DF91CF911F9108951F93CF93DF930F927B
:10014000CDB7DEB7182F862F69830E946B005998B0
:10015000589A812F69810E947B000F90DF91CF9187
:100160001F910895509A519A529A539A549A559AB7
:100170008FEF84B9089583E00E946B005D988CE254
:1001800091E020E931E0F9013197F1F70197D9F7D2
:100190005D9A8FE363E00E94860080EC63E00E943A
:1001A000860080E463E00E94860088EB63E00E94A2
:1001B000860008950F931F9310E0812F886B63E0F2
:1001C0000E94860080E463E00E94860000E480EFE5
:1001D00063E00E949C000150D1F788EB63E00E942D
:1001E000860080E463E00E9486001F5F183029F7D4
:1001F0001F910F9108950E94B2000E94BB000E94BF
:10020000DA008FEF61E00E949C00FFCFF894FFCFEF
:00000001FF
