:100000000C944C000C9469000C9469000C946900E9
:100010000C9469000C9469000C9469000C946900BC
:100020000C9469000C9469000C9469000C946900AC
:100030000C9469000C9469000C9469000C9469009C
:100040000C9469000C9469000C9469000C9469008C
:100050000C9469000C9469000C9469000C9469007C
:100060000C9469000C9469000C9469000C9469006C
:100070000C9469000C9469000C9469000C9469005C
:100080000C9469000C9469000C9469000C9469004C
:100090000C9469000C94690011241FBECFEFD4E0CA
:1000A000DEBFCDBF11E0A0E0B1E0E6E0F1E002C0CC
:1000B00005900D92A030B107D9F711E0A0E0B1E0B2
:1000C00001C01D92A030B107E1F70E946B000C94B3
:1000D00081000C940000569A80E991E028EE33E00C
:1000E000FC013197F1F721503040D1F75E9A28EEAC
:1000F00033E0FC013197F1F721503040D1F75E98A1
:06010000EDCFF894FFCFE3
:00000001FF
